{
  "_format": "hh-sol-artifact-1",
  "contractName": "Voting",
  "sourceName": "contracts/Voting.sol",
  "abi": [
    {
      "anonymous": false,
      "inputs": [
        {
          "indexed": true,
          "internalType": "address",
          "name": "previousOwner",
          "type": "address"
        },
        {
          "indexed": true,
          "internalType": "address",
          "name": "newOwner",
          "type": "address"
        }
      ],
      "name": "OwnershipTransferred",
      "type": "event"
    },
    {
      "anonymous": false,
      "inputs": [
        {
          "indexed": false,
          "internalType": "uint256",
          "name": "proposalId",
          "type": "uint256"
        }
      ],
      "name": "ProposalRegistered",
      "type": "event"
    },
    {
      "anonymous": false,
      "inputs": [
        {
          "indexed": false,
          "internalType": "address",
          "name": "voter",
          "type": "address"
        },
        {
          "indexed": false,
          "internalType": "uint256",
          "name": "proposalId",
          "type": "uint256"
        }
      ],
      "name": "Voted",
      "type": "event"
    },
    {
      "anonymous": false,
      "inputs": [
        {
          "indexed": false,
          "internalType": "address",
          "name": "voterAddress",
          "type": "address"
        }
      ],
      "name": "VoterRegistered",
      "type": "event"
    },
    {
      "anonymous": false,
      "inputs": [
        {
          "indexed": false,
          "internalType": "enum Voting.WorkflowStatus",
          "name": "previousStatus",
          "type": "uint8"
        },
        {
          "indexed": false,
          "internalType": "enum Voting.WorkflowStatus",
          "name": "newStatus",
          "type": "uint8"
        }
      ],
      "name": "WorkflowStatusChange",
      "type": "event"
    },
    {
      "inputs": [
        {
          "internalType": "string",
          "name": "_desc",
          "type": "string"
        }
      ],
      "name": "addProposal",
      "outputs": [],
      "stateMutability": "nonpayable",
      "type": "function"
    },
    {
      "inputs": [
        {
          "internalType": "address",
          "name": "_addr",
          "type": "address"
        }
      ],
      "name": "addVoter",
      "outputs": [],
      "stateMutability": "nonpayable",
      "type": "function"
    },
    {
      "inputs": [],
      "name": "endProposalsRegistering",
      "outputs": [],
      "stateMutability": "nonpayable",
      "type": "function"
    },
    {
      "inputs": [],
      "name": "endVotingSession",
      "outputs": [],
      "stateMutability": "nonpayable",
      "type": "function"
    },
    {
      "inputs": [
        {
          "internalType": "uint256",
          "name": "_id",
          "type": "uint256"
        }
      ],
      "name": "getOneProposal",
      "outputs": [
        {
          "components": [
            {
              "internalType": "string",
              "name": "description",
              "type": "string"
            },
            {
              "internalType": "uint256",
              "name": "voteCount",
              "type": "uint256"
            }
          ],
          "internalType": "struct Voting.Proposal",
          "name": "",
          "type": "tuple"
        }
      ],
      "stateMutability": "view",
      "type": "function"
    },
    {
      "inputs": [
        {
          "internalType": "address",
          "name": "_addr",
          "type": "address"
        }
      ],
      "name": "getVoter",
      "outputs": [
        {
          "components": [
            {
              "internalType": "bool",
              "name": "isRegistered",
              "type": "bool"
            },
            {
              "internalType": "bool",
              "name": "hasVoted",
              "type": "bool"
            },
            {
              "internalType": "uint256",
              "name": "votedProposalId",
              "type": "uint256"
            }
          ],
          "internalType": "struct Voting.Voter",
          "name": "",
          "type": "tuple"
        }
      ],
      "stateMutability": "view",
      "type": "function"
    },
    {
      "inputs": [],
      "name": "owner",
      "outputs": [
        {
          "internalType": "address",
          "name": "",
          "type": "address"
        }
      ],
      "stateMutability": "view",
      "type": "function"
    },
    {
      "inputs": [],
      "name": "renounceOwnership",
      "outputs": [],
      "stateMutability": "nonpayable",
      "type": "function"
    },
    {
      "inputs": [
        {
          "internalType": "uint256",
          "name": "_id",
          "type": "uint256"
        }
      ],
      "name": "setVote",
      "outputs": [],
      "stateMutability": "nonpayable",
      "type": "function"
    },
    {
      "inputs": [],
      "name": "startProposalsRegistering",
      "outputs": [],
      "stateMutability": "nonpayable",
      "type": "function"
    },
    {
      "inputs": [],
      "name": "startVotingSession",
      "outputs": [],
      "stateMutability": "nonpayable",
      "type": "function"
    },
    {
      "inputs": [
        {
          "internalType": "address",
          "name": "newOwner",
          "type": "address"
        }
      ],
      "name": "transferOwnership",
      "outputs": [],
      "stateMutability": "nonpayable",
      "type": "function"
    },
    {
      "inputs": [],
      "name": "winningProposalID",
      "outputs": [
        {
          "internalType": "uint256",
          "name": "",
          "type": "uint256"
        }
      ],
      "stateMutability": "view",
      "type": "function"
    },
    {
      "inputs": [],
      "name": "workflowStatus",
      "outputs": [
        {
          "internalType": "enum Voting.WorkflowStatus",
          "name": "",
          "type": "uint8"
        }
      ],
      "stateMutability": "view",
      "type": "function"
    }
  ],
  "bytecode": "0x608060405234801561001057600080fd5b5061002d61002261003260201b60201c565b61003a60201b60201c565b6100fe565b600033905090565b60008060009054906101000a900473ffffffffffffffffffffffffffffffffffffffff169050816000806101000a81548173ffffffffffffffffffffffffffffffffffffffff021916908373ffffffffffffffffffffffffffffffffffffffff1602179055508173ffffffffffffffffffffffffffffffffffffffff168173ffffffffffffffffffffffffffffffffffffffff167f8be0079c531659141344cd1fd0a4f28419497f9722a3daafe3b4186f6b6457e060405160405180910390a35050565b61229d806200010e6000396000f3fe608060405234801561001057600080fd5b50600436106100ea5760003560e01c8063bdc014311161008c578063d4f50f9811610066578063d4f50f98146101d9578063ee74c67814610209578063f2fde38b14610213578063f4ab9adf1461022f576100ea565b8063bdc01431146101a7578063c7038a4e146101c5578063c88af42f146101cf576100ea565b80638da5cb5b116100c85780638da5cb5b14610131578063a1edffa21461014f578063a2788cce1461016d578063a7bfab161461019d576100ea565b8063230796ae146100ef5780632fdae3c51461010b578063715018a614610127575b600080fd5b6101096004803603810190610104919061132b565b61024b565b005b610125600480360381019061012091906113bd565b6105a2565b005b61012f610825565b005b610139610839565b604051610146919061144b565b60405180910390f35b610157610862565b60405161016491906114dd565b60405180910390f35b6101876004803603810190610182919061132b565b610875565b60405161019491906115d4565b60405180910390f35b6101a56109dc565b005b6101af610ac2565b6040516101bc9190611605565b60405180910390f35b6101cd610ac8565b005b6101d7610c43565b005b6101f360048036038101906101ee919061164c565b610d28565b60405161020091906116d6565b60405180910390f35b610211610e50565b005b61022d6004803603810190610228919061164c565b610f36565b005b6102496004803603810190610244919061164c565b610fb9565b005b600460003373ffffffffffffffffffffffffffffffffffffffff1673ffffffffffffffffffffffffffffffffffffffff16815260200190815260200160002060000160009054906101000a900460ff166102da576040517f08c379a00000000000000000000000000000000000000000000000000000000081526004016102d19061174e565b60405180910390fd5b600360048111156102ee576102ed611466565b5b600260009054906101000a900460ff1660048111156103105761030f611466565b5b14610350576040517f08c379a0000000000000000000000000000000000000000000000000000000008152600401610347906117e0565b60405180910390fd5b60011515600460003373ffffffffffffffffffffffffffffffffffffffff1673ffffffffffffffffffffffffffffffffffffffff16815260200190815260200160002060000160019054906101000a900460ff161515036103e6576040517f08c379a00000000000000000000000000000000000000000000000000000000081526004016103dd9061184c565b60405180910390fd5b600380549050811061042d576040517f08c379a0000000000000000000000000000000000000000000000000000000008152600401610424906118b8565b60405180910390fd5b80600460003373ffffffffffffffffffffffffffffffffffffffff1673ffffffffffffffffffffffffffffffffffffffff168152602001908152602001600020600101819055506001600460003373ffffffffffffffffffffffffffffffffffffffff1673ffffffffffffffffffffffffffffffffffffffff16815260200190815260200160002060000160016101000a81548160ff021916908315150217905550600381815481106104e3576104e26118d8565b5b9060005260206000209060020201600101600081548092919061050590611936565b91905055506003600154815481106105205761051f6118d8565b5b90600052602060002090600202016001015460038281548110610546576105456118d8565b5b906000526020600020906002020160010154111561056657806001819055505b7f4d99b957a2bc29a30ebd96a7be8e68fe50a3c701db28a91436490b7d53870ca4338260405161059792919061197e565b60405180910390a150565b600460003373ffffffffffffffffffffffffffffffffffffffff1673ffffffffffffffffffffffffffffffffffffffff16815260200190815260200160002060000160009054906101000a900460ff16610631576040517f08c379a00000000000000000000000000000000000000000000000000000000081526004016106289061174e565b60405180910390fd5b6001600481111561064557610644611466565b5b600260009054906101000a900460ff16600481111561066757610666611466565b5b146106a7576040517f08c379a000000000000000000000000000000000000000000000000000000000815260040161069e906119f3565b60405180910390fd5b6040516020016106b690611a39565b6040516020818303038152906040528051906020012082826040516020016106df929190611a95565b6040516020818303038152906040528051906020012003610735576040517f08c379a000000000000000000000000000000000000000000000000000000000815260040161072c90611b2b565b60405180910390fd5b61073d6112ac565b82828080601f016020809104026020016040519081016040528093929190818152602001838380828437600081840152601f19601f820116905080830192505050505050508160000181905250600381908060018154018082558091505060019003906000526020600020906002020160009091909190915060008201518160000190816107cb9190611d86565b506020820151816001015550507f92e393e9b54e2f801d3ea4beb0c5e71a21cc34a5d34b77d0fb8a3aa1650dc18f600160038054905061080b9190611e58565b6040516108189190611605565b60405180910390a1505050565b61082d611162565b61083760006111e0565b565b60008060009054906101000a900473ffffffffffffffffffffffffffffffffffffffff16905090565b600260009054906101000a900460ff1681565b61087d6112ac565b600460003373ffffffffffffffffffffffffffffffffffffffff1673ffffffffffffffffffffffffffffffffffffffff16815260200190815260200160002060000160009054906101000a900460ff1661090c576040517f08c379a00000000000000000000000000000000000000000000000000000000081526004016109039061174e565b60405180910390fd5b600382815481106109205761091f6118d8565b5b906000526020600020906002020160405180604001604052908160008201805461094990611ba9565b80601f016020809104026020016040519081016040528092919081815260200182805461097590611ba9565b80156109c25780601f10610997576101008083540402835291602001916109c2565b820191906000526020600020905b8154815290600101906020018083116109a557829003601f168201915b505050505081526020016001820154815250509050919050565b6109e4611162565b600360048111156109f8576109f7611466565b5b600260009054906101000a900460ff166004811115610a1a57610a19611466565b5b14610a5a576040517f08c379a0000000000000000000000000000000000000000000000000000000008152600401610a51906117e0565b60405180910390fd5b6004600260006101000a81548160ff02191690836004811115610a8057610a7f611466565b5b02179055507f0a97a4ee45751e2abf3e4fc8946939630b11b371ea8ae39ccdc3056e98f5cc3f60036004604051610ab8929190611e8c565b60405180910390a1565b60015481565b610ad0611162565b60006004811115610ae457610ae3611466565b5b600260009054906101000a900460ff166004811115610b0657610b05611466565b5b14610b46576040517f08c379a0000000000000000000000000000000000000000000000000000000008152600401610b3d90611f27565b60405180910390fd5b6001600260006101000a81548160ff02191690836004811115610b6c57610b6b611466565b5b0217905550610b796112ac565b6040518060400160405280600781526020017f47454e4553495300000000000000000000000000000000000000000000000000815250816000018190525060038190806001815401808255809150506001900390600052602060002090600202016000909190919091506000820151816000019081610bf89190611d86565b506020820151816001015550507f0a97a4ee45751e2abf3e4fc8946939630b11b371ea8ae39ccdc3056e98f5cc3f60006001604051610c38929190611e8c565b60405180910390a150565b610c4b611162565b60016004811115610c5f57610c5e611466565b5b600260009054906101000a900460ff166004811115610c8157610c80611466565b5b14610cc1576040517f08c379a0000000000000000000000000000000000000000000000000000000008152600401610cb890611fb9565b60405180910390fd5b60028060006101000a81548160ff02191690836004811115610ce657610ce5611466565b5b02179055507f0a97a4ee45751e2abf3e4fc8946939630b11b371ea8ae39ccdc3056e98f5cc3f60016002604051610d1e929190611e8c565b60405180910390a1565b610d306112c6565b600460003373ffffffffffffffffffffffffffffffffffffffff1673ffffffffffffffffffffffffffffffffffffffff16815260200190815260200160002060000160009054906101000a900460ff16610dbf576040517f08c379a0000000000000000000000000000000000000000000000000000000008152600401610db69061174e565b60405180910390fd5b600460008373ffffffffffffffffffffffffffffffffffffffff1673ffffffffffffffffffffffffffffffffffffffff1681526020019081526020016000206040518060600160405290816000820160009054906101000a900460ff161515151581526020016000820160019054906101000a900460ff161515151581526020016001820154815250509050919050565b610e58611162565b60026004811115610e6c57610e6b611466565b5b600260009054906101000a900460ff166004811115610e8e57610e8d611466565b5b14610ece576040517f08c379a0000000000000000000000000000000000000000000000000000000008152600401610ec59061204b565b60405180910390fd5b6003600260006101000a81548160ff02191690836004811115610ef457610ef3611466565b5b02179055507f0a97a4ee45751e2abf3e4fc8946939630b11b371ea8ae39ccdc3056e98f5cc3f60026003604051610f2c929190611e8c565b60405180910390a1565b610f3e611162565b600073ffffffffffffffffffffffffffffffffffffffff168173ffffffffffffffffffffffffffffffffffffffff1603610fad576040517f08c379a0000000000000000000000000000000000000000000000000000000008152600401610fa4906120dd565b60405180910390fd5b610fb6816111e0565b50565b610fc1611162565b60006004811115610fd557610fd4611466565b5b600260009054906101000a900460ff166004811115610ff757610ff6611466565b5b14611037576040517f08c379a000000000000000000000000000000000000000000000000000000000815260040161102e9061216f565b60405180910390fd5b60011515600460008373ffffffffffffffffffffffffffffffffffffffff1673ffffffffffffffffffffffffffffffffffffffff16815260200190815260200160002060000160009054906101000a900460ff161515036110cd576040517f08c379a00000000000000000000000000000000000000000000000000000000081526004016110c4906121db565b60405180910390fd5b6001600460008373ffffffffffffffffffffffffffffffffffffffff1673ffffffffffffffffffffffffffffffffffffffff16815260200190815260200160002060000160006101000a81548160ff0219169083151502179055507fb6be2187d059cc2a55fe29e0e503b566e1e0f8c8780096e185429350acffd3dd81604051611157919061144b565b60405180910390a150565b61116a6112a4565b73ffffffffffffffffffffffffffffffffffffffff16611188610839565b73ffffffffffffffffffffffffffffffffffffffff16146111de576040517f08c379a00000000000000000000000000000000000000000000000000000000081526004016111d590612247565b60405180910390fd5b565b60008060009054906101000a900473ffffffffffffffffffffffffffffffffffffffff169050816000806101000a81548173ffffffffffffffffffffffffffffffffffffffff021916908373ffffffffffffffffffffffffffffffffffffffff1602179055508173ffffffffffffffffffffffffffffffffffffffff168173ffffffffffffffffffffffffffffffffffffffff167f8be0079c531659141344cd1fd0a4f28419497f9722a3daafe3b4186f6b6457e060405160405180910390a35050565b600033905090565b604051806040016040528060608152602001600081525090565b6040518060600160405280600015158152602001600015158152602001600081525090565b600080fd5b600080fd5b6000819050919050565b611308816112f5565b811461131357600080fd5b50565b600081359050611325816112ff565b92915050565b600060208284031215611341576113406112eb565b5b600061134f84828501611316565b91505092915050565b600080fd5b600080fd5b600080fd5b60008083601f84011261137d5761137c611358565b5b8235905067ffffffffffffffff81111561139a5761139961135d565b5b6020830191508360018202830111156113b6576113b5611362565b5b9250929050565b600080602083850312156113d4576113d36112eb565b5b600083013567ffffffffffffffff8111156113f2576113f16112f0565b5b6113fe85828601611367565b92509250509250929050565b600073ffffffffffffffffffffffffffffffffffffffff82169050919050565b60006114358261140a565b9050919050565b6114458161142a565b82525050565b6000602082019050611460600083018461143c565b92915050565b7f4e487b7100000000000000000000000000000000000000000000000000000000600052602160045260246000fd5b600581106114a6576114a5611466565b5b50565b60008190506114b782611495565b919050565b60006114c7826114a9565b9050919050565b6114d7816114bc565b82525050565b60006020820190506114f260008301846114ce565b92915050565b600081519050919050565b600082825260208201905092915050565b60005b83811015611532578082015181840152602081019050611517565b60008484015250505050565b6000601f19601f8301169050919050565b600061155a826114f8565b6115648185611503565b9350611574818560208601611514565b61157d8161153e565b840191505092915050565b611591816112f5565b82525050565b600060408301600083015184820360008601526115b4828261154f565b91505060208301516115c96020860182611588565b508091505092915050565b600060208201905081810360008301526115ee8184611597565b905092915050565b6115ff816112f5565b82525050565b600060208201905061161a60008301846115f6565b92915050565b6116298161142a565b811461163457600080fd5b50565b60008135905061164681611620565b92915050565b600060208284031215611662576116616112eb565b5b600061167084828501611637565b91505092915050565b60008115159050919050565b61168e81611679565b82525050565b6060820160008201516116aa6000850182611685565b5060208201516116bd6020850182611685565b5060408201516116d06040850182611588565b50505050565b60006060820190506116eb6000830184611694565b92915050565b600082825260208201905092915050565b7f596f75277265206e6f74206120766f7465720000000000000000000000000000600082015250565b60006117386012836116f1565b915061174382611702565b602082019050919050565b600060208201905081810360008301526117678161172b565b9050919050565b7f566f74696e672073657373696f6e20686176656e74207374617274656420796560008201527f7400000000000000000000000000000000000000000000000000000000000000602082015250565b60006117ca6021836116f1565b91506117d58261176e565b604082019050919050565b600060208201905081810360008301526117f9816117bd565b9050919050565b7f596f75206861766520616c726561647920766f74656400000000000000000000600082015250565b60006118366016836116f1565b915061184182611800565b602082019050919050565b6000602082019050818103600083015261186581611829565b9050919050565b7f50726f706f73616c206e6f7420666f756e640000000000000000000000000000600082015250565b60006118a26012836116f1565b91506118ad8261186c565b602082019050919050565b600060208201905081810360008301526118d181611895565b9050919050565b7f4e487b7100000000000000000000000000000000000000000000000000000000600052603260045260246000fd5b7f4e487b7100000000000000000000000000000000000000000000000000000000600052601160045260246000fd5b6000611941826112f5565b91507fffffffffffffffffffffffffffffffffffffffffffffffffffffffffffffffff820361197357611972611907565b5b600182019050919050565b6000604082019050611993600083018561143c565b6119a060208301846115f6565b9392505050565b7f50726f706f73616c7320617265206e6f7420616c6c6f77656420796574000000600082015250565b60006119dd601d836116f1565b91506119e8826119a7565b602082019050919050565b60006020820190508181036000830152611a0c816119d0565b9050919050565b50565b6000611a236000836116f1565b9150611a2e82611a13565b600082019050919050565b60006020820190508181036000830152611a5281611a16565b9050919050565b82818337600083830152505050565b6000611a7483856116f1565b9350611a81838584611a59565b611a8a8361153e565b840190509392505050565b60006020820190508181036000830152611ab0818486611a68565b90509392505050565b7f566f7573206e6520706f7576657a20706173206e65207269656e2070726f706f60008201527f7365720000000000000000000000000000000000000000000000000000000000602082015250565b6000611b156023836116f1565b9150611b2082611ab9565b604082019050919050565b60006020820190508181036000830152611b4481611b08565b9050919050565b7f4e487b7100000000000000000000000000000000000000000000000000000000600052604160045260246000fd5b7f4e487b7100000000000000000000000000000000000000000000000000000000600052602260045260246000fd5b60006002820490506001821680611bc157607f821691505b602082108103611bd457611bd3611b7a565b5b50919050565b60008190508160005260206000209050919050565b60006020601f8301049050919050565b600082821b905092915050565b600060088302611c3c7fffffffffffffffffffffffffffffffffffffffffffffffffffffffffffffffff82611bff565b611c468683611bff565b95508019841693508086168417925050509392505050565b6000819050919050565b6000611c83611c7e611c79846112f5565b611c5e565b6112f5565b9050919050565b6000819050919050565b611c9d83611c68565b611cb1611ca982611c8a565b848454611c0c565b825550505050565b600090565b611cc6611cb9565b611cd1818484611c94565b505050565b5b81811015611cf557611cea600082611cbe565b600181019050611cd7565b5050565b601f821115611d3a57611d0b81611bda565b611d1484611bef565b81016020851015611d23578190505b611d37611d2f85611bef565b830182611cd6565b50505b505050565b600082821c905092915050565b6000611d5d60001984600802611d3f565b1980831691505092915050565b6000611d768383611d4c565b9150826002028217905092915050565b611d8f826114f8565b67ffffffffffffffff811115611da857611da7611b4b565b5b611db28254611ba9565b611dbd828285611cf9565b600060209050601f831160018114611df05760008415611dde578287015190505b611de88582611d6a565b865550611e50565b601f198416611dfe86611bda565b60005b82811015611e2657848901518255600182019150602085019450602081019050611e01565b86831015611e435784890151611e3f601f891682611d4c565b8355505b6001600288020188555050505b505050505050565b6000611e63826112f5565b9150611e6e836112f5565b9250828203905081811115611e8657611e85611907565b5b92915050565b6000604082019050611ea160008301856114ce565b611eae60208301846114ce565b9392505050565b7f5265676973746572696e672070726f706f73616c732063616e7420626520737460008201527f6172746564206e6f770000000000000000000000000000000000000000000000602082015250565b6000611f116029836116f1565b9150611f1c82611eb5565b604082019050919050565b60006020820190508181036000830152611f4081611f04565b9050919050565b7f5265676973746572696e672070726f706f73616c7320686176656e742073746160008201527f7274656420796574000000000000000000000000000000000000000000000000602082015250565b6000611fa36028836116f1565b9150611fae82611f47565b604082019050919050565b60006020820190508181036000830152611fd281611f96565b9050919050565b7f5265676973746572696e672070726f706f73616c73207068617365206973206e60008201527f6f742066696e6973686564000000000000000000000000000000000000000000602082015250565b6000612035602b836116f1565b915061204082611fd9565b604082019050919050565b6000602082019050818103600083015261206481612028565b9050919050565b7f4f776e61626c653a206e6577206f776e657220697320746865207a65726f206160008201527f6464726573730000000000000000000000000000000000000000000000000000602082015250565b60006120c76026836116f1565b91506120d28261206b565b604082019050919050565b600060208201905081810360008301526120f6816120ba565b9050919050565b7f566f7465727320726567697374726174696f6e206973206e6f74206f70656e2060008201527f7965740000000000000000000000000000000000000000000000000000000000602082015250565b60006121596023836116f1565b9150612164826120fd565b604082019050919050565b600060208201905081810360008301526121888161214c565b9050919050565b7f416c726561647920726567697374657265640000000000000000000000000000600082015250565b60006121c56012836116f1565b91506121d08261218f565b602082019050919050565b600060208201905081810360008301526121f4816121b8565b9050919050565b7f4f776e61626c653a2063616c6c6572206973206e6f7420746865206f776e6572600082015250565b60006122316020836116f1565b915061223c826121fb565b602082019050919050565b6000602082019050818103600083015261226081612224565b905091905056fea2646970667358221220bc633613d39b2ed8c0c07b6773c780acb9bc3719747809a9e6154cc48b61788564736f6c63430008110033",
  "linkReferences": {},
  "deployedLinkReferences": {}
}