{
    "_format": "hh-sol-artifact-1",
    "contractName": "Voting",
    "sourceName": "contracts/Voting.sol",
    "abi": [
        {
            "inputs": [],
            "stateMutability": "nonpayable",
            "type": "constructor"
        },
        {
            "anonymous": false,
            "inputs": [
                {
                    "indexed": true,
                    "internalType": "address",
                    "name": "previousOwner",
                    "type": "address"
                },
                {
                    "indexed": true,
                    "internalType": "address",
                    "name": "newOwner",
                    "type": "address"
                }
            ],
            "name": "OwnershipTransferred",
            "type": "event"
        },
        {
            "anonymous": false,
            "inputs": [
                {
                    "indexed": false,
                    "internalType": "uint256",
                    "name": "proposalId",
                    "type": "uint256"
                }
            ],
            "name": "ProposalRegistered",
            "type": "event"
        },
        {
            "anonymous": false,
            "inputs": [
                {
                    "indexed": false,
                    "internalType": "address",
                    "name": "voter",
                    "type": "address"
                },
                {
                    "indexed": false,
                    "internalType": "uint256",
                    "name": "proposalId",
                    "type": "uint256"
                }
            ],
            "name": "Voted",
            "type": "event"
        },
        {
            "anonymous": false,
            "inputs": [
                {
                    "indexed": false,
                    "internalType": "address",
                    "name": "voterAddress",
                    "type": "address"
                }
            ],
            "name": "VoterRegistered",
            "type": "event"
        },
        {
            "anonymous": false,
            "inputs": [
                {
                    "indexed": false,
                    "internalType": "enum Voting.WorkflowStatus",
                    "name": "previousStatus",
                    "type": "uint8"
                },
                {
                    "indexed": false,
                    "internalType": "enum Voting.WorkflowStatus",
                    "name": "newStatus",
                    "type": "uint8"
                }
            ],
            "name": "WorkflowStatusChange",
            "type": "event"
        },
        {
            "inputs": [
                {
                    "internalType": "string",
                    "name": "_desc",
                    "type": "string"
                }
            ],
            "name": "addProposal",
            "outputs": [],
            "stateMutability": "nonpayable",
            "type": "function"
        },
        {
            "inputs": [
                {
                    "internalType": "address",
                    "name": "_addr",
                    "type": "address"
                }
            ],
            "name": "addVoter",
            "outputs": [],
            "stateMutability": "nonpayable",
            "type": "function"
        },
        {
            "inputs": [],
            "name": "endProposalsRegistering",
            "outputs": [],
            "stateMutability": "nonpayable",
            "type": "function"
        },
        {
            "inputs": [],
            "name": "endVotingSession",
            "outputs": [],
            "stateMutability": "nonpayable",
            "type": "function"
        },
        {
            "inputs": [
                {
                    "internalType": "uint256",
                    "name": "_id",
                    "type": "uint256"
                }
            ],
            "name": "getOneProposal",
            "outputs": [
                {
                    "components": [
                        {
                            "internalType": "string",
                            "name": "description",
                            "type": "string"
                        },
                        {
                            "internalType": "uint256",
                            "name": "voteCount",
                            "type": "uint256"
                        }
                    ],
                    "internalType": "struct Voting.Proposal",
                    "name": "",
                    "type": "tuple"
                }
            ],
            "stateMutability": "view",
            "type": "function"
        },
        {
            "inputs": [
                {
                    "internalType": "address",
                    "name": "_addr",
                    "type": "address"
                }
            ],
            "name": "getVoter",
            "outputs": [
                {
                    "components": [
                        {
                            "internalType": "bool",
                            "name": "isRegistered",
                            "type": "bool"
                        },
                        {
                            "internalType": "bool",
                            "name": "hasVoted",
                            "type": "bool"
                        },
                        {
                            "internalType": "uint256",
                            "name": "votedProposalId",
                            "type": "uint256"
                        }
                    ],
                    "internalType": "struct Voting.Voter",
                    "name": "",
                    "type": "tuple"
                }
            ],
            "stateMutability": "view",
            "type": "function"
        },
        {
            "inputs": [],
            "name": "owner",
            "outputs": [
                {
                    "internalType": "address",
                    "name": "",
                    "type": "address"
                }
            ],
            "stateMutability": "view",
            "type": "function"
        },
        {
            "inputs": [],
            "name": "renounceOwnership",
            "outputs": [],
            "stateMutability": "nonpayable",
            "type": "function"
        },
        {
            "inputs": [
                {
                    "internalType": "uint256",
                    "name": "_id",
                    "type": "uint256"
                }
            ],
            "name": "setVote",
            "outputs": [],
            "stateMutability": "nonpayable",
            "type": "function"
        },
        {
            "inputs": [],
            "name": "startProposalsRegistering",
            "outputs": [],
            "stateMutability": "nonpayable",
            "type": "function"
        },
        {
            "inputs": [],
            "name": "startVotingSession",
            "outputs": [],
            "stateMutability": "nonpayable",
            "type": "function"
        },
        {
            "inputs": [
                {
                    "internalType": "address",
                    "name": "newOwner",
                    "type": "address"
                }
            ],
            "name": "transferOwnership",
            "outputs": [],
            "stateMutability": "nonpayable",
            "type": "function"
        },
        {
            "inputs": [],
            "name": "winningProposalID",
            "outputs": [
                {
                    "internalType": "uint256",
                    "name": "",
                    "type": "uint256"
                }
            ],
            "stateMutability": "view",
            "type": "function"
        },
        {
            "inputs": [],
            "name": "workflowStatus",
            "outputs": [
                {
                    "internalType": "enum Voting.WorkflowStatus",
                    "name": "",
                    "type": "uint8"
                }
            ],
            "stateMutability": "view",
            "type": "function"
        }
    ],
    "bytecode": "0x60806040523480156200001157600080fd5b506200003262000026620000d160201b60201c565b620000d960201b60201c565b6200003c6200019d565b6040518060400160405280600781526020017f47454e4553495300000000000000000000000000000000000000000000000000815250816000018190525060038190806001815401808255809150506001900390600052602060002090600202016000909190919091506000820151816000019081620000bd919062000431565b506020820151816001015550505062000518565b600033905090565b60008060009054906101000a900473ffffffffffffffffffffffffffffffffffffffff169050816000806101000a81548173ffffffffffffffffffffffffffffffffffffffff021916908373ffffffffffffffffffffffffffffffffffffffff1602179055508173ffffffffffffffffffffffffffffffffffffffff168173ffffffffffffffffffffffffffffffffffffffff167f8be0079c531659141344cd1fd0a4f28419497f9722a3daafe3b4186f6b6457e060405160405180910390a35050565b604051806040016040528060608152602001600081525090565b600081519050919050565b7f4e487b7100000000000000000000000000000000000000000000000000000000600052604160045260246000fd5b7f4e487b7100000000000000000000000000000000000000000000000000000000600052602260045260246000fd5b600060028204905060018216806200023957607f821691505b6020821081036200024f576200024e620001f1565b5b50919050565b60008190508160005260206000209050919050565b60006020601f8301049050919050565b600082821b905092915050565b600060088302620002b97fffffffffffffffffffffffffffffffffffffffffffffffffffffffffffffffff826200027a565b620002c586836200027a565b95508019841693508086168417925050509392505050565b6000819050919050565b6000819050919050565b6000620003126200030c6200030684620002dd565b620002e7565b620002dd565b9050919050565b6000819050919050565b6200032e83620002f1565b620003466200033d8262000319565b84845462000287565b825550505050565b600090565b6200035d6200034e565b6200036a81848462000323565b505050565b5b8181101562000392576200038660008262000353565b60018101905062000370565b5050565b601f821115620003e157620003ab8162000255565b620003b6846200026a565b81016020851015620003c6578190505b620003de620003d5856200026a565b8301826200036f565b50505b505050565b600082821c905092915050565b60006200040660001984600802620003e6565b1980831691505092915050565b6000620004218383620003f3565b9150826002028217905092915050565b6200043c82620001b7565b67ffffffffffffffff811115620004585762000457620001c2565b5b62000464825462000220565b6200047182828562000396565b600060209050601f831160018114620004a9576000841562000494578287015190505b620004a0858262000413565b86555062000510565b601f198416620004b98662000255565b60005b82811015620004e357848901518255600182019150602085019450602081019050620004bc565b86831015620005035784890151620004ff601f891682620003f3565b8355505b6001600288020188555050505b505050505050565b61220880620005286000396000f3fe608060405234801561001057600080fd5b50600436106100ea5760003560e01c8063bdc014311161008c578063d4f50f9811610066578063d4f50f98146101d9578063ee74c67814610209578063f2fde38b14610213578063f4ab9adf1461022f576100ea565b8063bdc01431146101a7578063c7038a4e146101c5578063c88af42f146101cf576100ea565b80638da5cb5b116100c85780638da5cb5b14610131578063a1edffa21461014f578063a2788cce1461016d578063a7bfab161461019d576100ea565b8063230796ae146100ef5780632fdae3c51461010b578063715018a614610127575b600080fd5b61010960048036038101906101049190611296565b61024b565b005b61012560048036038101906101209190611328565b6105a2565b005b61012f610825565b005b610139610839565b60405161014691906113b6565b60405180910390f35b610157610862565b6040516101649190611448565b60405180910390f35b61018760048036038101906101829190611296565b610875565b604051610194919061153f565b60405180910390f35b6101a56109dc565b005b6101af610ac2565b6040516101bc9190611570565b60405180910390f35b6101cd610ac8565b005b6101d7610bae565b005b6101f360048036038101906101ee91906115b7565b610c93565b6040516102009190611641565b60405180910390f35b610211610dbb565b005b61022d600480360381019061022891906115b7565b610ea1565b005b610249600480360381019061024491906115b7565b610f24565b005b600460003373ffffffffffffffffffffffffffffffffffffffff1673ffffffffffffffffffffffffffffffffffffffff16815260200190815260200160002060000160009054906101000a900460ff166102da576040517f08c379a00000000000000000000000000000000000000000000000000000000081526004016102d1906116b9565b60405180910390fd5b600360048111156102ee576102ed6113d1565b5b600260009054906101000a900460ff1660048111156103105761030f6113d1565b5b14610350576040517f08c379a00000000000000000000000000000000000000000000000000000000081526004016103479061174b565b60405180910390fd5b60011515600460003373ffffffffffffffffffffffffffffffffffffffff1673ffffffffffffffffffffffffffffffffffffffff16815260200190815260200160002060000160019054906101000a900460ff161515036103e6576040517f08c379a00000000000000000000000000000000000000000000000000000000081526004016103dd906117b7565b60405180910390fd5b600380549050811061042d576040517f08c379a000000000000000000000000000000000000000000000000000000000815260040161042490611823565b60405180910390fd5b80600460003373ffffffffffffffffffffffffffffffffffffffff1673ffffffffffffffffffffffffffffffffffffffff168152602001908152602001600020600101819055506001600460003373ffffffffffffffffffffffffffffffffffffffff1673ffffffffffffffffffffffffffffffffffffffff16815260200190815260200160002060000160016101000a81548160ff021916908315150217905550600381815481106104e3576104e2611843565b5b90600052602060002090600202016001016000815480929190610505906118a1565b91905055506003600154815481106105205761051f611843565b5b9060005260206000209060020201600101546003828154811061054657610545611843565b5b906000526020600020906002020160010154111561056657806001819055505b7f4d99b957a2bc29a30ebd96a7be8e68fe50a3c701db28a91436490b7d53870ca433826040516105979291906118e9565b60405180910390a150565b600460003373ffffffffffffffffffffffffffffffffffffffff1673ffffffffffffffffffffffffffffffffffffffff16815260200190815260200160002060000160009054906101000a900460ff16610631576040517f08c379a0000000000000000000000000000000000000000000000000000000008152600401610628906116b9565b60405180910390fd5b60016004811115610645576106446113d1565b5b600260009054906101000a900460ff166004811115610667576106666113d1565b5b146106a7576040517f08c379a000000000000000000000000000000000000000000000000000000000815260040161069e9061195e565b60405180910390fd5b6040516020016106b6906119a4565b6040516020818303038152906040528051906020012082826040516020016106df929190611a00565b6040516020818303038152906040528051906020012003610735576040517f08c379a000000000000000000000000000000000000000000000000000000000815260040161072c90611a96565b60405180910390fd5b61073d611217565b82828080601f016020809104026020016040519081016040528093929190818152602001838380828437600081840152601f19601f820116905080830192505050505050508160000181905250600381908060018154018082558091505060019003906000526020600020906002020160009091909190915060008201518160000190816107cb9190611cf1565b506020820151816001015550507f92e393e9b54e2f801d3ea4beb0c5e71a21cc34a5d34b77d0fb8a3aa1650dc18f600160038054905061080b9190611dc3565b6040516108189190611570565b60405180910390a1505050565b61082d6110cd565b610837600061114b565b565b60008060009054906101000a900473ffffffffffffffffffffffffffffffffffffffff16905090565b600260009054906101000a900460ff1681565b61087d611217565b600460003373ffffffffffffffffffffffffffffffffffffffff1673ffffffffffffffffffffffffffffffffffffffff16815260200190815260200160002060000160009054906101000a900460ff1661090c576040517f08c379a0000000000000000000000000000000000000000000000000000000008152600401610903906116b9565b60405180910390fd5b600382815481106109205761091f611843565b5b906000526020600020906002020160405180604001604052908160008201805461094990611b14565b80601f016020809104026020016040519081016040528092919081815260200182805461097590611b14565b80156109c25780601f10610997576101008083540402835291602001916109c2565b820191906000526020600020905b8154815290600101906020018083116109a557829003601f168201915b505050505081526020016001820154815250509050919050565b6109e46110cd565b600360048111156109f8576109f76113d1565b5b600260009054906101000a900460ff166004811115610a1a57610a196113d1565b5b14610a5a576040517f08c379a0000000000000000000000000000000000000000000000000000000008152600401610a519061174b565b60405180910390fd5b6004600260006101000a81548160ff02191690836004811115610a8057610a7f6113d1565b5b02179055507f0a97a4ee45751e2abf3e4fc8946939630b11b371ea8ae39ccdc3056e98f5cc3f60036004604051610ab8929190611df7565b60405180910390a1565b60015481565b610ad06110cd565b60006004811115610ae457610ae36113d1565b5b600260009054906101000a900460ff166004811115610b0657610b056113d1565b5b14610b46576040517f08c379a0000000000000000000000000000000000000000000000000000000008152600401610b3d90611e92565b60405180910390fd5b6001600260006101000a81548160ff02191690836004811115610b6c57610b6b6113d1565b5b02179055507f0a97a4ee45751e2abf3e4fc8946939630b11b371ea8ae39ccdc3056e98f5cc3f60006001604051610ba4929190611df7565b60405180910390a1565b610bb66110cd565b60016004811115610bca57610bc96113d1565b5b600260009054906101000a900460ff166004811115610bec57610beb6113d1565b5b14610c2c576040517f08c379a0000000000000000000000000000000000000000000000000000000008152600401610c2390611f24565b60405180910390fd5b60028060006101000a81548160ff02191690836004811115610c5157610c506113d1565b5b02179055507f0a97a4ee45751e2abf3e4fc8946939630b11b371ea8ae39ccdc3056e98f5cc3f60016002604051610c89929190611df7565b60405180910390a1565b610c9b611231565b600460003373ffffffffffffffffffffffffffffffffffffffff1673ffffffffffffffffffffffffffffffffffffffff16815260200190815260200160002060000160009054906101000a900460ff16610d2a576040517f08c379a0000000000000000000000000000000000000000000000000000000008152600401610d21906116b9565b60405180910390fd5b600460008373ffffffffffffffffffffffffffffffffffffffff1673ffffffffffffffffffffffffffffffffffffffff1681526020019081526020016000206040518060600160405290816000820160009054906101000a900460ff161515151581526020016000820160019054906101000a900460ff161515151581526020016001820154815250509050919050565b610dc36110cd565b60026004811115610dd757610dd66113d1565b5b600260009054906101000a900460ff166004811115610df957610df86113d1565b5b14610e39576040517f08c379a0000000000000000000000000000000000000000000000000000000008152600401610e3090611fb6565b60405180910390fd5b6003600260006101000a81548160ff02191690836004811115610e5f57610e5e6113d1565b5b02179055507f0a97a4ee45751e2abf3e4fc8946939630b11b371ea8ae39ccdc3056e98f5cc3f60026003604051610e97929190611df7565b60405180910390a1565b610ea96110cd565b600073ffffffffffffffffffffffffffffffffffffffff168173ffffffffffffffffffffffffffffffffffffffff1603610f18576040517f08c379a0000000000000000000000000000000000000000000000000000000008152600401610f0f90612048565b60405180910390fd5b610f218161114b565b50565b610f2c6110cd565b60006004811115610f4057610f3f6113d1565b5b600260009054906101000a900460ff166004811115610f6257610f616113d1565b5b14610fa2576040517f08c379a0000000000000000000000000000000000000000000000000000000008152600401610f99906120da565b60405180910390fd5b60011515600460008373ffffffffffffffffffffffffffffffffffffffff1673ffffffffffffffffffffffffffffffffffffffff16815260200190815260200160002060000160009054906101000a900460ff16151503611038576040517f08c379a000000000000000000000000000000000000000000000000000000000815260040161102f90612146565b60405180910390fd5b6001600460008373ffffffffffffffffffffffffffffffffffffffff1673ffffffffffffffffffffffffffffffffffffffff16815260200190815260200160002060000160006101000a81548160ff0219169083151502179055507fb6be2187d059cc2a55fe29e0e503b566e1e0f8c8780096e185429350acffd3dd816040516110c291906113b6565b60405180910390a150565b6110d561120f565b73ffffffffffffffffffffffffffffffffffffffff166110f3610839565b73ffffffffffffffffffffffffffffffffffffffff1614611149576040517f08c379a0000000000000000000000000000000000000000000000000000000008152600401611140906121b2565b60405180910390fd5b565b60008060009054906101000a900473ffffffffffffffffffffffffffffffffffffffff169050816000806101000a81548173ffffffffffffffffffffffffffffffffffffffff021916908373ffffffffffffffffffffffffffffffffffffffff1602179055508173ffffffffffffffffffffffffffffffffffffffff168173ffffffffffffffffffffffffffffffffffffffff167f8be0079c531659141344cd1fd0a4f28419497f9722a3daafe3b4186f6b6457e060405160405180910390a35050565b600033905090565b604051806040016040528060608152602001600081525090565b6040518060600160405280600015158152602001600015158152602001600081525090565b600080fd5b600080fd5b6000819050919050565b61127381611260565b811461127e57600080fd5b50565b6000813590506112908161126a565b92915050565b6000602082840312156112ac576112ab611256565b5b60006112ba84828501611281565b91505092915050565b600080fd5b600080fd5b600080fd5b60008083601f8401126112e8576112e76112c3565b5b8235905067ffffffffffffffff811115611305576113046112c8565b5b602083019150836001820283011115611321576113206112cd565b5b9250929050565b6000806020838503121561133f5761133e611256565b5b600083013567ffffffffffffffff81111561135d5761135c61125b565b5b611369858286016112d2565b92509250509250929050565b600073ffffffffffffffffffffffffffffffffffffffff82169050919050565b60006113a082611375565b9050919050565b6113b081611395565b82525050565b60006020820190506113cb60008301846113a7565b92915050565b7f4e487b7100000000000000000000000000000000000000000000000000000000600052602160045260246000fd5b60058110611411576114106113d1565b5b50565b600081905061142282611400565b919050565b600061143282611414565b9050919050565b61144281611427565b82525050565b600060208201905061145d6000830184611439565b92915050565b600081519050919050565b600082825260208201905092915050565b60005b8381101561149d578082015181840152602081019050611482565b60008484015250505050565b6000601f19601f8301169050919050565b60006114c582611463565b6114cf818561146e565b93506114df81856020860161147f565b6114e8816114a9565b840191505092915050565b6114fc81611260565b82525050565b6000604083016000830151848203600086015261151f82826114ba565b915050602083015161153460208601826114f3565b508091505092915050565b600060208201905081810360008301526115598184611502565b905092915050565b61156a81611260565b82525050565b60006020820190506115856000830184611561565b92915050565b61159481611395565b811461159f57600080fd5b50565b6000813590506115b18161158b565b92915050565b6000602082840312156115cd576115cc611256565b5b60006115db848285016115a2565b91505092915050565b60008115159050919050565b6115f9816115e4565b82525050565b60608201600082015161161560008501826115f0565b50602082015161162860208501826115f0565b50604082015161163b60408501826114f3565b50505050565b600060608201905061165660008301846115ff565b92915050565b600082825260208201905092915050565b7f596f75277265206e6f74206120766f7465720000000000000000000000000000600082015250565b60006116a360128361165c565b91506116ae8261166d565b602082019050919050565b600060208201905081810360008301526116d281611696565b9050919050565b7f566f74696e672073657373696f6e20686176656e74207374617274656420796560008201527f7400000000000000000000000000000000000000000000000000000000000000602082015250565b600061173560218361165c565b9150611740826116d9565b604082019050919050565b6000602082019050818103600083015261176481611728565b9050919050565b7f596f75206861766520616c726561647920766f74656400000000000000000000600082015250565b60006117a160168361165c565b91506117ac8261176b565b602082019050919050565b600060208201905081810360008301526117d081611794565b9050919050565b7f50726f706f73616c206e6f7420666f756e640000000000000000000000000000600082015250565b600061180d60128361165c565b9150611818826117d7565b602082019050919050565b6000602082019050818103600083015261183c81611800565b9050919050565b7f4e487b7100000000000000000000000000000000000000000000000000000000600052603260045260246000fd5b7f4e487b7100000000000000000000000000000000000000000000000000000000600052601160045260246000fd5b60006118ac82611260565b91507fffffffffffffffffffffffffffffffffffffffffffffffffffffffffffffffff82036118de576118dd611872565b5b600182019050919050565b60006040820190506118fe60008301856113a7565b61190b6020830184611561565b9392505050565b7f50726f706f73616c7320617265206e6f7420616c6c6f77656420796574000000600082015250565b6000611948601d8361165c565b915061195382611912565b602082019050919050565b600060208201905081810360008301526119778161193b565b9050919050565b50565b600061198e60008361165c565b91506119998261197e565b600082019050919050565b600060208201905081810360008301526119bd81611981565b9050919050565b82818337600083830152505050565b60006119df838561165c565b93506119ec8385846119c4565b6119f5836114a9565b840190509392505050565b60006020820190508181036000830152611a1b8184866119d3565b90509392505050565b7f566f7573206e6520706f7576657a20706173206e65207269656e2070726f706f60008201527f7365720000000000000000000000000000000000000000000000000000000000602082015250565b6000611a8060238361165c565b9150611a8b82611a24565b604082019050919050565b60006020820190508181036000830152611aaf81611a73565b9050919050565b7f4e487b7100000000000000000000000000000000000000000000000000000000600052604160045260246000fd5b7f4e487b7100000000000000000000000000000000000000000000000000000000600052602260045260246000fd5b60006002820490506001821680611b2c57607f821691505b602082108103611b3f57611b3e611ae5565b5b50919050565b60008190508160005260206000209050919050565b60006020601f8301049050919050565b600082821b905092915050565b600060088302611ba77fffffffffffffffffffffffffffffffffffffffffffffffffffffffffffffffff82611b6a565b611bb18683611b6a565b95508019841693508086168417925050509392505050565b6000819050919050565b6000611bee611be9611be484611260565b611bc9565b611260565b9050919050565b6000819050919050565b611c0883611bd3565b611c1c611c1482611bf5565b848454611b77565b825550505050565b600090565b611c31611c24565b611c3c818484611bff565b505050565b5b81811015611c6057611c55600082611c29565b600181019050611c42565b5050565b601f821115611ca557611c7681611b45565b611c7f84611b5a565b81016020851015611c8e578190505b611ca2611c9a85611b5a565b830182611c41565b50505b505050565b600082821c905092915050565b6000611cc860001984600802611caa565b1980831691505092915050565b6000611ce18383611cb7565b9150826002028217905092915050565b611cfa82611463565b67ffffffffffffffff811115611d1357611d12611ab6565b5b611d1d8254611b14565b611d28828285611c64565b600060209050601f831160018114611d5b5760008415611d49578287015190505b611d538582611cd5565b865550611dbb565b601f198416611d6986611b45565b60005b82811015611d9157848901518255600182019150602085019450602081019050611d6c565b86831015611dae5784890151611daa601f891682611cb7565b8355505b6001600288020188555050505b505050505050565b6000611dce82611260565b9150611dd983611260565b9250828203905081811115611df157611df0611872565b5b92915050565b6000604082019050611e0c6000830185611439565b611e196020830184611439565b9392505050565b7f5265676973746572696e672070726f706f73616c732063616e7420626520737460008201527f6172746564206e6f770000000000000000000000000000000000000000000000602082015250565b6000611e7c60298361165c565b9150611e8782611e20565b604082019050919050565b60006020820190508181036000830152611eab81611e6f565b9050919050565b7f5265676973746572696e672070726f706f73616c7320686176656e742073746160008201527f7274656420796574000000000000000000000000000000000000000000000000602082015250565b6000611f0e60288361165c565b9150611f1982611eb2565b604082019050919050565b60006020820190508181036000830152611f3d81611f01565b9050919050565b7f5265676973746572696e672070726f706f73616c73207068617365206973206e60008201527f6f742066696e6973686564000000000000000000000000000000000000000000602082015250565b6000611fa0602b8361165c565b9150611fab82611f44565b604082019050919050565b60006020820190508181036000830152611fcf81611f93565b9050919050565b7f4f776e61626c653a206e6577206f776e657220697320746865207a65726f206160008201527f6464726573730000000000000000000000000000000000000000000000000000602082015250565b600061203260268361165c565b915061203d82611fd6565b604082019050919050565b6000602082019050818103600083015261206181612025565b9050919050565b7f566f7465727320726567697374726174696f6e206973206e6f74206f70656e2060008201527f7965740000000000000000000000000000000000000000000000000000000000602082015250565b60006120c460238361165c565b91506120cf82612068565b604082019050919050565b600060208201905081810360008301526120f3816120b7565b9050919050565b7f416c726561647920726567697374657265640000000000000000000000000000600082015250565b600061213060128361165c565b915061213b826120fa565b602082019050919050565b6000602082019050818103600083015261215f81612123565b9050919050565b7f4f776e61626c653a2063616c6c6572206973206e6f7420746865206f776e6572600082015250565b600061219c60208361165c565b91506121a782612166565b602082019050919050565b600060208201905081810360008301526121cb8161218f565b905091905056fea264697066735822122075a9a5efce2f6e84e7d2b8fe154f6ae367db3e579c495a299e2ff13843859fa764736f6c63430008110033",
    "linkReferences": {},
    "deployedLinkReferences": {}
}